:100000000C9477000C949F000C949F000C949F001C
:100010000C949F000C949F000C949F000C949F00E4
:100020000C949F000C949F000C949F000C949F00D4
:100030000C949F000C949F000C949F000C949F00C4
:100040000C9463040C949F000C94E8040C94AD048D
:100050000C949F000C949F000C949F000C949F00A4
:100060000C949F000C949F00B500B800AB00AF004B
:10007000D300BC00C000C600CA00CE0000000000D3
:10008000240027002A002D00000000002500280081
:100090002B002E00000000002300260029002C0069
:1000A000040404040404040402020202020203031E
:1000B00003030303050505050505050102040810F2
:1000C00020408001020408102001020408102002D0
:1000D0000801041020400000000750020100000346
:1000E00004060000000000000000000022051124AA
:1000F0001FBECFEFD8E0DEBFCDBF11E0A0E0B1E082
:10010000EEE6FDE102C005900D92AC37B107D9F7DC
:1001100022E0ACE7B1E001C01D92A33FB207E1F7D6
:1001200010E0C7E7D0E004C02197FE010E948A09D1
:10013000C637D107C9F70E9461050C94B50E0C941F
:10014000000090E0FC013197EA30F10560F5EC5CCD
:10015000FF4F0C948A09809180008F7703C08091B3
:1001600080008F7D80938000089584B58F7702C0D2
:1001700084B58F7D84BD08958091B0008F7703C0D2
:100180008091B0008F7D8093B000089580919000A1
:100190008F7707C0809190008F7D03C08091900081
:1001A000877F809390000895CF93DF93282F30E0CE
:1001B000F901EA52FF4F8491F901E554FF4FD491C0
:1001C000F901E056FF4FC491CC2391F081110E94B8
:1001D000A100EC2FF0E0EE0FFF1FEC56FF4FA591B2
:1001E000B491EC91ED2381E090E021F480E002C035
:1001F00080E090E0DF91CF9108951F93CF93DF933C
:10020000282F30E0F901EA52FF4F8491F901E554BB
:10021000FF4FD491F901E056FF4FC491CC23C9F0B0
:10022000162F81110E94A100EC2FF0E0EE0FFF1FAE
:10023000E857FF4FA591B4918FB7F894111105C0FD
:100240009C91ED2FE095E92302C0EC91ED2BEC930E
:100250008FBFDF91CF911F910895CF93DF93282F08
:1002600030E0F901E554FF4F9491F901E056FF4F5A
:100270002491633031F4843051F43091A0003C601B
:1002800003C0843021F433E03093A00014C03AEE70
:10029000380F323020F43FEF34BF34BF0CC08A3106
:1002A00051F43091F00032603EBB30E83093F00002
:1002B0003EB33093F000222371F130E0220F331F60
:1002C000F901E458FF4FA591B491F901E857FF4FA8
:1002D000C591D491611109C02FB7F8948C91909574
:1002E00089238C93E8819E230BC0623061F42FB781
:1002F000F8943C91892F809583238C93E8819E2BE1
:1003000098832FBF08C0843031F08FB7F894EC91F8
:100310009E2B9C938FBFDF91CF9108953FB7F894A8
:1003200080913B0290913C02A0913D02B0913E022F
:1003300026B5A89B05C02F3F19F00196A11DB11D40
:100340003FBFBA2FA92F982F8827820F911DA11D7B
:10035000B11DBC01CD0142E0660F771F881F991FB8
:100360004A95D1F70895CF92DF92EF92FF92CF9303
:10037000DF936B017C010E948E01EB01C114D1045B
:10038000E104F10479F00E948E016C1B7D0B683E44
:100390007340A0F381E0C81AD108E108F108C85100
:1003A000DC4FECCFDF91CF91FF90EF90DF90CF90BB
:1003B00008952FB7F89460913702709138028091B8
:1003C000390290913A022FBF08950895CF92DF929B
:1003D000EF92FF920F931F93CF93DF936C01EB018A
:1003E0007B01E40EF51E00E010E0CE15DF0561F0A4
:1003F0006991D601ED91FC910190F081E02DC6014B
:100400000995080F191FF1CFC801DF91CF911F91F6
:100410000F91FF90EF90DF90CF9008950F931F936F
:10042000CF93DF93FC01A685B7858D01005C1F4F3C
:10043000E8018881998101968F739927AD014E5B00
:100440005F4FEA012881398182179307D1F3E801D0
:1004500028813981A20FB31F6C93A685B785A05C54
:10046000BF4F11969C938E93A689B7892C9181E0FA
:1004700090E0078C02C0880F991F0A94E2F7822B44
:100480008C9381E081A30488F589E02D80818064CC
:10049000808381E090E0DF91CF911F910F910895CB
:1004A000FC0181A1882329F0A489B5898C9186FF5C
:1004B000FBCF11A20895FC01A485B585FD01E05C88
:1004C000FF4F208131813296808191812817390731
:1004D00079F080819181A80FB91F8C9120813181A1
:1004E0002F5F3F4F2F7333273183208390E0089590
:1004F0008FEF9FEF0895DC011C96ED91FC911D9705
:10050000DF01A05CBF4F2D913C91119712968D9108
:100510009C9111972817390739F08D919C91E80F1C
:10052000F91F808190E008958FEF9FEF0895FC01FF
:1005300024853585F901E05CFF4F808191813296F9
:1005400020813181821B930B8F739927089587EC4B
:1005500092E00C949702CF93C82F682F87EC92E01B
:100560000E940E028C2FCC0F990BCF9108950F9300
:100570001F93CF93DF931F92CDB7DEB7082F87EF7E
:10058000800F823010F4611164E6262F30E0AFEF67
:10059000B0E00E94A60E24E630E040E050E00E9469
:1005A0002E0E122F0430B9F061E0802F29830E94B3
:1005B0002D01298111110DC060E003C01038E0F356
:1005C00061E0802F0F90DF91CF911F910F910C94DC
:1005D000FD001F3FA9F3E02FF0E0EA52FF4FE49146
:1005E000E63009F441C0C8F4E23071F138F4E1308A
:1005F00029F784B5806884BD27BD55C0E33049F133
:10060000E430E1F68091800080628093800030E0E9
:1006100030938B0020938A0046C0E930A9F160F442
:10062000E73051F1E83051F6809190008068809376
:1006300090002093980037C0EA3071F1E03509F05E
:10064000BDCF2093A1002FC084B5806284BD28BD9A
:100650002AC08091800080688093800030E03093D1
:100660008900209388001FC08091B000806880932B
:10067000B0002093B30017C08091B00080628093D7
:10068000B0002093B4000FC08091900080628093EE
:10069000900020939A0007C080919000886080931A
:1006A000900020939E000F90DF91CF911F910F91AA
:1006B00008950F931F93CF93DF931F92CDB7DEB7AB
:1006C00090E0FC01EE0FFF1FEE0FFF1FDF01AF57A1
:1006D000BE4F12966C93129731E0611101C030E069
:1006E0003C93EF57FE4F41836130E9F080F0623078
:1006F00071F5880F991F8C01065F1E4F60E0F801AD
:10070000808149830E94B7024981642F17C0880FF6
:10071000991F8C01065F1E4F64E6F80180810E94DC
:10072000B70264E60BC0880F991F8C01065F1E4F4D
:10073000642FF80180810E94B70260E0F801818196
:100740000F90DF91CF911F910F910C94B7020F90F2
:10075000DF91CF911F910F910895CF93DF93EC011B
:100760006EE470E00E949009892B21F1CE01019680
:100770000E946D0C80932A029FB711BC12BC80BDF1
:10078000F89484E08FBB82E08FBB9FBF64E670E08B
:1007900080E090E00E94B30180912A021F928F9323
:1007A0008DE291E09F938F930E94A9090F900F9083
:1007B0000F900F90DF91CF910895CF93DF93EC01CD
:1007C0006EE470E00E949009892BC9F1CE01019678
:1007D0000E946D0C20912A0230E08217930779F570
:1007E00040E060E080E00E94590340E060E081E08A
:1007F0000E945903109229021092280264EF71E0BE
:1008000080E090E00E94B30144E662E080E00E9454
:10081000590344E662E081E00E94590381E080933D
:10082000270280930E0261E070E080E090E00E9479
:10083000B30180E491E0DF91CF910C94BF09DF9187
:10084000CF910895CF93DF93EC016EE470E00E94A6
:100850009009892BA9F12196CE010E946D0C20915F
:100860002A0230E08217930759F566E470E0CE0162
:100870000E949009009721F101960E946D0C853627
:10088000910514F084E690E08093800110927C0141
:1008900010927D0110927E0110927F0148EE53E08C
:1008A000849F9001859F300D112430932C0220935A
:1008B0002B0240E561E080E0DF91CF910C94590379
:1008C000DF91CF9108951F920F920FB60F921124CE
:1008D0002F933F938F939F93AF93BF938091370252
:1008E00090913802A0913902B0913A0230913602CB
:1008F00023E0230F2D3720F40196A11DB11D05C063
:1009000026E8230F0296A11DB11D20933602809385
:10091000370290933802A0933902B0933A02809143
:100920003B0290913C02A0913D02B0913E020196A3
:10093000A11DB11D80933B0290933C02A0933D0208
:10094000B0933E02BF91AF919F918F913F912F91B4
:100950000F900FBE0F901F9018951F920F920FB619
:100960000F9211242F933F938F939F93EF93FF93B5
:1009700020917F02309180028091810290918202C9
:100980002817390731F48091C1008F7D8093C10011
:1009900014C0E0918102F0918202E15CFD4F208160
:1009A000809181029091820201968F739927909392
:1009B0008202809381022093C600FF91EF919F9164
:1009C0008F913F912F910F900FBE0F901F90189510
:1009D0001F920F920FB60F9211242F934F935F9394
:1009E0008F939F93EF93FF938091C00082FD1CC073
:1009F0002091C6008091C3029091C40201968F732A
:100A000099274091C5025091C6028417950771F04D
:100A1000E091C302F091C402ED57FD4F2083909303
:100A2000C4028093C30202C08091C600FF91EF917F
:100A30009F918F915F914F912F910F900FBE0F90CB
:100A40001F901895E7ECF2E01382128288EE93E093
:100A5000A0E0B0E084839583A683B78381E291E030
:100A60009183808383E892E0958784878FE392E087
:100A70009787868785EC90E0918B808B84EC90E063
:100A8000938B828B80EC90E0958B848B81EC90E053
:100A9000978B868B82EC90E0918F808F86EC90E034
:100AA000938F828F84E0848F83E0858F87E0868FA9
:100AB00085E0878F81E080A380E886BF8CE486BFD5
:100AC00008958091F20080618EBB80E88093F200EF
:100AD0009EB39093F2008093610081E08093610067
:100AE000789484B5826084BD84B5816084BD85B509
:100AF000826085BD85B5816085BD80916E00816015
:100B000080936E00109281008091810082608093BA
:100B100081008091810081608093810080918000BC
:100B20008160809380008091B10084608093B100E7
:100B30008091B00081608093B000809191008260CC
:100B400080939100809191008160809391008091C9
:100B5000900081608093900080917A0084608093FF
:100B60007A0080917A00826080937A0080917A0086
:100B70008E7F80937A0080917A00806880937A00DB
:100B80001092C10060E070E08BEA92E00E94930C4A
:100B9000E091DB02F091DC0281E090E09C010090AA
:100BA000E70202C0220F331F0A94E2F72083E0918C
:100BB000D702F091D8021082E091D902F091DA02C6
:100BC0002FEC20831092E802E091DD02F091DE022A
:100BD00040819C010090E30202C0220F331F0A945F
:100BE000E2F7242B2083E091DD02F091DE024081C8
:100BF0009C010090E40202C0220F331F0A94E2F726
:100C0000242B2083E091DD02F091DE0240819C01E3
:100C10000090E50202C0220F331F0A94E2F7242B52
:100C20002083E091DD02F091DE0220810090E60257
:100C300002C0880F991F0A94E2F78095822380836F
:100C400061E08DE00E942D0161E08DE00E94FD00D9
:100C5000C5E0D0E000E010E0FF24F394602F6F25A2
:100C60008DE00E94FD0068EC70E080E090E00E9462
:100C7000B30121E00227219789F764E685E00E940D
:100C8000B70264E686E00E94B70264E689E00E944B
:100C9000B70264E68AE00E94B70288E1EFE0F2E082
:100CA000DF011D928A95E9F701E112E0FEE0EF2EE7
:100CB000F1E0FF2EC0E0F70181917F010E94D40096
:100CC000F80131978083D8018C9360E08C2F0E94CB
:100CD0002D01085F1F4FCF5FC33069F760E088E0E8
:100CE0000E942D019FE088E10FB6F894A8958093AB
:100CF00060000FBE9093600011BC12BCF89A000017
:100D0000000080B580932A0281110AC064E670E079
:100D100080E090E00E94B30180E491E00E94BF096E
:100D2000C5E4D1E078EEE72E73E0F72EEDE8CE2EA5
:100D3000E1E0DE2E0DE411E06FE0862E62E0962EFB
:100D4000A12CB12CF4018081882309F4FDC010820C
:100D500081818111BBC0F1E0AF16B10409F442C03A
:100D600022E0A216B10409F473C00E94D901609375
:100D7000130270931402809315029093160210923E
:100D8000120280913102882399F01092310261E0C1
:100D90008DE00E94FD001092300210922F021092FE
:100DA0002C0210922B021092290210922802D7C016
:100DB00080910E02882361F01092270210920E0299
:100DC00040E060E080E00E94590340E060E03CC009
:100DD00040E561E080E00E945903F0922C02E0922D
:100DE0002B02B2C0809131028111CFCF80910E02CF
:100DF0008111E2CF81E0809327020E94D9016093A4
:100E00001B0270931C0280931D0290931E0210928D
:100E10001A02109229021092280240E060E080E05D
:100E20000E94590340E060E081E00E94590364E6BB
:100E300070E080E090E00E94B30144E662E080E070
:100E40000E94590344E662E081E00E9459037CC09D
:100E500080918301813009F077C0809180018111F8
:100E600015C040E060E00E94590310922C021092DD
:100E70002B0261E070E080E090E00E94B30180917D
:100E80002A021F928F93DF93CF9319C081508093D2
:100E90008001811159C040E060E00E945903109226
:100EA0002C0210922B0261E070E080E090E00E9442
:100EB000B30180912A021F928F93DF93CF930E94F8
:100EC000A9090F900F900F900F903EC0A114B1048C
:100ED00029F0F1E0AF16B10471F036C08091120232
:100EE000811132C010921302109214021092150256
:100EF0001092160229C080911A02811125C0109209
:100F00001B0210921C0210921D0210921E021092DF
:100F1000270240E060E00E94590340E060E081E089
:100F20000E9459031092310261E08DE00E94FD00A1
:100F30001092300210922F0210922C0210922B026B
:100F400010922902109228022FEFA21AB20A88E00A
:100F5000880E911CA3E0AA16B10409F0F3CE80908C
:100F6000890190908A01A0908B01B0908C01B5E02E
:100F70008B0E911CA11CB11C0E94D901681579052A
:100F80008A059B05C0F48091890190918A01A09106
:100F90008B01B0918C018B3F9F4FAF4FBF4FC0F182
:100FA0000E94D9016093890170938A0180938B011B
:100FB00090938C012DC00E94D90160938901709398
:100FC0008A0180938B0190938C0141E1A42E42E031
:100FD000B42E5EE0852E51E0952E77247394D401D3
:100FE0008D914D010E94D400F50131978083F50168
:100FF0009081891721F032977082D5018C93B8E0E7
:10100000AB0EB11CE9E2AE16E2E0BE0641F7BBCF83
:1010100087EC92E00E949702181619060CF062C045
:1010200087EC92E00E945B028F3708F05BC0E09192
:101030000D02843519F0803208F041C0EE23E1F151
:10104000F0E0E357FE4F108231E1632E31E0732E62
:10105000812C912CD3016D917C91FB01019000209A
:10106000E9F731975F01A61AB70AA5018DE891E06B
:101070000E949B09892BB1F4A50143575E4FCA0119
:101080004F5F5F4FFC0120812032C9F3F401EE0F66
:10109000FF1FEE0FFF1FEF5EFE4F0280F381E02D7A
:1010A00009950AC0FFEF8F1A9F0A24E0620E711C97
:1010B00083E08816910471F610920D0208C0AE2FDD
:1010C000B0E0A357BE4F8C93EF5FE0930D02809189
:1010D0000D0287FF07C010920D0280E8D6011D9215
:1010E0008A95E9F782E1A82E82E0B82E912C882417
:1010F0008394F50132978081811136C0F5014180DA
:10110000528063807480411451046104710461F160
:101110008081811129C00E94D901DC01CB01805D51
:101120009740A109B10984159505A605B705E0F01A
:10113000992031F0F1E09F120FC090920E020CC086
:1011400080912A021F928F931F930F930E94A909E7
:101150000F900F900F900F90D50111961D921D9238
:101160001D921C9214978C929394B8E0AB0EB11C14
:10117000E3E09E12BECFB0903102B1102CC080913E
:101180002702882371F088E00E94D400892B19F08F
:1011900044E662E002C040E060E080E00E94590363
:1011A0001AC088E00E94D400892B61F044E661E017
:1011B00081E00E94590388EB9BE090932902809381
:1011C000280209C040E060E081E00E9459031092CB
:1011D0002902109228020E94D901409032025090B8
:1011E00033026090340270903502641575058605EF
:1011F000970509F48BC00E94D90160933202709365
:1012000033028093340290933502BB2019F1809110
:101210002F02909130020097E9F0019790933002ED
:1012200080932F02892BB1F4A0902D02B0902E0252
:1012300061E0A11060E08DE00E94FD00F1E0AF26CA
:10124000B0922E02A0922D0284E690E0909330029C
:1012500080932F0280912B0290912C02009741F1F4
:10126000019790932C0280932B02892B09F581E042
:101270008093310281E090E09093300280932F02BE
:1012800080912A021F928F9387E591E09F938F931D
:101290000E94A90940E060E080E00E94590340E01C
:1012A00060E081E00E9459030F900F900F900F9023
:1012B0008091280290912902009741F10197909323
:1012C000290280932802892B09F581E0809331025D
:1012D00081E090E09093300280932F0280912A0267
:1012E0001F928F9383E691E09F938F930E94A909A9
:1012F00040E060E080E00E94590340E060E081E06F
:101300000E9459030F900F900F900F90A8950E9484
:10131000A70212CDEE0FFF1F0590F491E02D099466
:10132000FC018191861721F08823D9F79927089528
:101330003197CF010895FB01DC014150504030F05E
:101340008D910190801919F40020B9F7881B990B31
:101350000895A0E0B0E0EFEAF9E00C945D0EAE0174
:101360004B5F5F4FFA0161917191AF018091EB0288
:101370009091EC020E94EF09E2E00C94790E0F9339
:101380001F93CF93DF93E091EB02F091EC02238166
:1013900021FF1BC08C01D0E0C0E0F80181918F01DA
:1013A0006091EB027091EC02DB011896ED91FC91DB
:1013B0001997882331F00995892B79F3DFEFCFEF67
:1013C000ECCF8AE00995892B19F08FEF9FEF02C0CF
:1013D0008D2F9C2FDF91CF911F910F910895ACE03D
:1013E000B0E0E5EFF9E00C944D0E7C016B018A0151
:1013F000FC0117821682838181FFBDC1CE01019657
:101400004C01F7019381F60193FD859193FF819142
:101410006F01882309F4ABC1853239F493FD8591BE
:1014200093FF81916F01853229F4B70190E00E940A
:10143000D70BE7CF512C312C20E02032A0F48B3297
:1014400069F030F4803259F0833269F420612CC0A5
:101450008D3239F0803339F4216026C02260246057
:1014600023C0286021C027FD27C030ED380F3A3057
:1014700078F426FF06C0FAE05F9E300D1124532E4B
:1014800013C08AE0389E300D1124332E20620CC028
:101490008E3221F426FD6BC1206406C08C3611F417
:1014A000206802C0883641F4F60193FD859193FFD0
:1014B00081916F018111C1CF982F9F7D95549330F9
:1014C00028F40C5F1F4FFFE3F9830DC0833631F022
:1014D000833771F0833509F05BC022C0F801808149
:1014E00089830E5F1F4F44244394512C540115C02F
:1014F0003801F2E06F0E711CF801A080B18026FF68
:1015000003C0652D70E002C06FEF7FEFC5012C872F
:101510000E94CC0B2C0183012C852F77222E17C023
:101520003801F2E06F0E711CF801A080B18026FF37
:1015300003C0652D70E002C06FEF7FEFC5012C87FF
:101540000E94C10B2C012C852068222E830123FCD4
:101550001BC0832D90E048165906B0F4B70180E215
:1015600090E00E94D70B3A94F4CFF50127FC8591C7
:1015700027FE81915F01B70190E00E94D70B3110E7
:101580003A94F1E04F1A51084114510471F7E5C043
:10159000843611F0893639F5F80127FF07C06081DC
:1015A0007181828193810C5F1F4F08C060817181BE
:1015B000072E000C880B990B0E5F1F4F2F76722E93
:1015C00097FF09C090958095709561957F4F8F4FDB
:1015D0009F4F2068722E2AE030E0A4010E940F0C79
:1015E000A82EA81844C0853729F42F7EB22E2AE0F1
:1015F00030E025C0F22FF97FBF2E8F36C1F018F4EE
:10160000883579F0B4C0803719F0883721F0AFC041
:101610002F2F2061B22EB4FE0DC08B2D8460B82E0A
:1016200009C024FF0AC09F2F9660B92E06C028E08B
:1016300030E005C020E130E002C020E132E0F801F6
:10164000B7FE07C060817181828193810C5F1F4F5B
:1016500006C06081718180E090E00E5F1F4FA401A1
:101660000E940F0CA82EA818FB2DFF777F2E76FE68
:101670000BC0372D3E7FA51450F474FE0AC072FCD7
:1016800008C0372D3E7E05C0BA2C372D03C0BA2CBA
:1016900001C0B52C34FF0DC0FE01EA0DF11D8081A3
:1016A000803311F4397E09C032FF06C0B394B3947D
:1016B00004C0832F867809F0B39433FD13C030FF44
:1016C00006C05A2CB31418F4530C5B18B32CB31483
:1016D00068F4B70180E290E03C870E94D70BB39496
:1016E0003C85F5CFB31410F43B1801C0312C34FF06
:1016F00012C0B70180E390E03C870E94D70B3C8585
:1017000032FF17C031FD03C088E790E002C088E5D2
:1017100090E0B7010CC0832F867859F031FF02C0EA
:101720008BE201C080E237FD8DE2B70190E00E94BC
:10173000D70BA51438F4B70180E390E00E94D70BD3
:101740005A94F7CFAA94F401EA0DF11D8081B701F4
:1017500090E00E94D70BA110F5CF332009F451CEB1
:10176000B70180E290E00E94D70B3A94F6CFF701E0
:101770008681978102C08FEF9FEF2C96E2E10C9457
:10178000690EFC010590615070400110D8F78095FA
:1017900090958E0F9F1F0895FC016150704001903D
:1017A0000110D8F7809590958E0F9F1F08950F9385
:1017B0001F93CF93DF93FB01238121FD03C08FEFA4
:1017C0009FEF28C022FF16C04681578124813581B2
:1017D0004217530744F4A081B1819D012F5F3F4F11
:1017E000318320838C93268137812F5F3F4F37834E
:1017F000268310C0EB01092F182F0084F185E02DFE
:101800000995892BE1F68E819F8101969F838E83B6
:10181000812F902FDF91CF911F910F910895FA01A1
:10182000AA27283051F1203181F1E8946F936E7F1F
:101830006E5F7F4F8F4F9F4FAF4FB1E03ED0B4E010
:101840003CD0670F781F891F9A1FA11D680F791F51
:101850008A1F911DA11D6A0F711D811D911DA11D62
:1018600020D009F468943F912AE0269F1124301972
:10187000305D3193DEF6CF010895462F4770405D0D
:101880004193B3E00FD0C9F7F6CF462F4F70405DBC
:101890004A3318F0495D31FD4052419302D0A9F717
:1018A000EACFB4E0A6959795879577956795BA9511
:1018B000C9F700976105710508959B01AC010A2ED7
:1018C00006945795479537952795BA95C9F7620FAE
:1018D000731F841F951FA01D0895FC018827992759
:1018E000E89421912032E9F3293010F02E30C8F32A
:1018F0002B3241F02D3239F4689404C00E948B0CD5
:10190000820F911D219120532A30C0F31EF490952F
:1019100081959F4F08957AE0979F902D879F802D06
:10192000910D112408950F931F93CF93DF93009788
:1019300031F46115710519F480E090E03AC08B0133
:10194000EC016EE070E081E090E00E94DE0CFC01B2
:10195000892B91F380E883830115110571F01387BA
:10196000028781E883838091E9029091EA02892BC2
:1019700021F4F093EA02E093E9022097C9F0D187BD
:10198000C0878381826083838091EB029091EC0217
:10199000892B71F4F093EC02E093EB028091ED025D
:1019A0009091EE02892B21F4F093EE02E093ED0288
:1019B000CF01DF91CF911F910F9108950F931F9346
:1019C000CF93DF93869F8001879F100D969F100D08
:1019D0001124C8010E94FA0CEC01009729F0A8011B
:1019E00060E070E00E94270ECE01DF91CF911F9141
:1019F0000F910895CF93DF938230910510F482E028
:101A000090E0E091F102F091F20220E030E0C0E0DD
:101A1000D0E0309711F14081518148175907C0F04B
:101A20004817590761F482819381209719F09B83AD
:101A30008A832BC09093F2028093F10226C0211575
:101A4000310519F04217530718F49A01BE01DF015E
:101A5000EF010280F381E02DDCCF2115310509F182
:101A6000281B390B2430310590F412968D919C91EE
:101A700013976115710521F0FB019383828304C0E4
:101A80009093F2028093F102FD01329644C0FD0171
:101A9000E20FF31F81939193225031092D933C93D0
:101AA0003AC02091EF023091F002232B41F42091B3
:101AB0000601309107013093F0022093EF0220914C
:101AC0000401309105012115310541F42DB73EB7D0
:101AD0004091080150910901241B350BE091EF0260
:101AE000F091F002E217F307A0F42E1B3F0B28172A
:101AF000390778F0AC014E5F5F4F2417350748F087
:101B00004E0F5F1F5093F0024093EF028193919329
:101B100002C0E0E0F0E0CF01DF91CF9108950F9394
:101B20001F93CF93DF93009709F48CC0FC01329789
:101B3000138212820091F1021091F2020115110537
:101B400081F420813181820F931F2091EF02309127
:101B5000F0022817390779F5F093F002E093EF02CD
:101B600071C0D80140E050E0AE17BF0750F41296A4
:101B70002D913C911397AD012115310509F1D90142
:101B8000F3CF9D01DA013383228360817181860F57
:101B9000971F8217930769F4EC0128813981260F7A
:101BA000371F2E5F3F4F318320838A819B81938330
:101BB0008283452B29F4F093F202E093F10242C0B4
:101BC0001396FC93EE931297ED01499159919E0162
:101BD000240F351FE217F30771F480819181840F80
:101BE000951F029611969C938E93828193811396F2
:101BF0009C938E931297E0E0F0E0D80112968D91BD
:101C00009C911397009719F0F8018C01F6CF8D91F4
:101C10009C9198012E5F3F4F820F931F2091EF02FE
:101C20003091F0022817390769F4309729F410929F
:101C3000F2021092F10202C0138212821093F0029B
:101C40000093EF02DF91CF911F910F910895DC0176
:101C500001C06D9341505040E0F70895052E97FB69
:101C60001EF400940E94450E57FD07D00E94840E7A
:101C700007FC03D04EF40C94450E509540953095DA
:101C800021953F4F4F4F5F4F0895909580957095E8
:101C900061957F4F8F4F9F4F08952F923F924F92A4
:101CA0005F926F927F928F929F92AF92BF92CF92EC
:101CB000DF92EF92FF920F931F93CF93DF93CDB7F5
:101CC000DEB7CA1BDB0B0FB6F894DEBF0FBECDBF6D
:101CD00009942A88398848885F846E847D848C843E
:101CE0009B84AA84B984C884DF80EE80FD800C8147
:101CF0001B81AA81B981CE0FD11D0FB6F894DEBF2A
:101D00000FBECDBFED010895A1E21A2EAA1BBB1B89
:101D1000FD010DC0AA1FBB1FEE1FFF1FA217B307B7
:101D2000E407F50720F0A21BB30BE40BF50B661FCD
:101D3000771F881F991F1A9469F760957095809591
:101D400090959B01AC01BD01CF010895A29FB00108
:101D5000B39FC001A39F700D811D1124911DB29FDF
:0E1D6000700D811D1124911D0895F894FFCF80
:101D6E00010000000000F30280000506090A070CBE
:101D7E00036D0122047201DD037701AD0300000043
:101D8E00000E02E60197025B027B02500261646460
:101D9E0072207365742025640D0A6F6B210D0A0085
:101DAE006F6B210D006F6B2125640D0A0061646459
:101DBE00723A25640D0A006572726F72312C2564B9
:101DCE000D0A006572726F72322C2564004D36302A
:0C1DDE0030004D363031004D39393900ED
:00000001FF
